{
  "abi": [
    {
      "inputs": [
        {
          "internalType": "string",
          "name": "name",
          "type": "string"
        },
        {
          "internalType": "string",
          "name": "symbol",
          "type": "string"
        },
        {
          "internalType": "string",
          "name": "version",
          "type": "string"
        },
        {
          "internalType": "uint256",
          "name": "chainId",
          "type": "uint256"
        }
      ],
      "stateMutability": "nonpayable",
      "type": "constructor"
    },
    {
      "anonymous": false,
      "inputs": [
        {
          "indexed": true,
          "internalType": "address",
          "name": "owner",
          "type": "address"
        },
        {
          "indexed": true,
          "internalType": "address",
          "name": "approved",
          "type": "address"
        },
        {
          "indexed": true,
          "internalType": "uint256",
          "name": "tokenId",
          "type": "uint256"
        }
      ],
      "name": "Approval",
      "type": "event"
    },
    {
      "anonymous": false,
      "inputs": [
        {
          "indexed": true,
          "internalType": "address",
          "name": "owner",
          "type": "address"
        },
        {
          "indexed": true,
          "internalType": "address",
          "name": "operator",
          "type": "address"
        },
        {
          "indexed": false,
          "internalType": "bool",
          "name": "approved",
          "type": "bool"
        }
      ],
      "name": "ApprovalForAll",
      "type": "event"
    },
    {
      "anonymous": false,
      "inputs": [
        {
          "indexed": false,
          "internalType": "uint256",
          "name": "_fromTokenId",
          "type": "uint256"
        },
        {
          "indexed": false,
          "internalType": "uint256",
          "name": "_toTokenId",
          "type": "uint256"
        }
      ],
      "name": "BatchMetadataUpdate",
      "type": "event"
    },
    {
      "anonymous": false,
      "inputs": [
        {
          "indexed": false,
          "internalType": "uint256",
          "name": "_tokenId",
          "type": "uint256"
        }
      ],
      "name": "MetadataUpdate",
      "type": "event"
    },
    {
      "anonymous": false,
      "inputs": [
        {
          "indexed": true,
          "internalType": "address",
          "name": "previousOwner",
          "type": "address"
        },
        {
          "indexed": true,
          "internalType": "address",
          "name": "newOwner",
          "type": "address"
        }
      ],
      "name": "OwnershipTransferred",
      "type": "event"
    },
    {
      "anonymous": false,
      "inputs": [
        {
          "indexed": false,
          "internalType": "address",
          "name": "account",
          "type": "address"
        }
      ],
      "name": "Paused",
      "type": "event"
    },
    {
      "anonymous": false,
      "inputs": [
        {
          "indexed": true,
          "internalType": "address",
          "name": "from",
          "type": "address"
        },
        {
          "indexed": true,
          "internalType": "address",
          "name": "to",
          "type": "address"
        },
        {
          "indexed": true,
          "internalType": "uint256",
          "name": "tokenId",
          "type": "uint256"
        }
      ],
      "name": "Transfer",
      "type": "event"
    },
    {
      "anonymous": false,
      "inputs": [
        {
          "indexed": false,
          "internalType": "address",
          "name": "account",
          "type": "address"
        }
      ],
      "name": "Unpaused",
      "type": "event"
    },
    {
      "inputs": [
        {
          "internalType": "address",
          "name": "to",
          "type": "address"
        },
        {
          "internalType": "uint256",
          "name": "tokenId",
          "type": "uint256"
        }
      ],
      "name": "approve",
      "outputs": [],
      "stateMutability": "nonpayable",
      "type": "function"
    },
    {
      "inputs": [
        {
          "internalType": "address",
          "name": "owner",
          "type": "address"
        }
      ],
      "name": "balanceOf",
      "outputs": [
        {
          "internalType": "uint256",
          "name": "",
          "type": "uint256"
        }
      ],
      "stateMutability": "view",
      "type": "function"
    },
    {
      "inputs": [
        {
          "internalType": "uint256",
          "name": "tokenId",
          "type": "uint256"
        }
      ],
      "name": "getApproved",
      "outputs": [
        {
          "internalType": "address",
          "name": "",
          "type": "address"
        }
      ],
      "stateMutability": "view",
      "type": "function"
    },
    {
      "inputs": [
        {
          "internalType": "address",
          "name": "owner",
          "type": "address"
        },
        {
          "internalType": "address",
          "name": "operator",
          "type": "address"
        }
      ],
      "name": "isApprovedForAll",
      "outputs": [
        {
          "internalType": "bool",
          "name": "",
          "type": "bool"
        }
      ],
      "stateMutability": "view",
      "type": "function"
    },
    {
      "inputs": [
        {
          "internalType": "address",
          "name": "to",
          "type": "address"
        },
        {
          "internalType": "uint256",
          "name": "nonce",
          "type": "uint256"
        },
        {
          "internalType": "uint8",
          "name": "v",
          "type": "uint8"
        },
        {
          "internalType": "bytes32",
          "name": "r",
          "type": "bytes32"
        },
        {
          "internalType": "bytes32",
          "name": "s",
          "type": "bytes32"
        }
      ],
      "name": "mint",
      "outputs": [],
      "stateMutability": "payable",
      "type": "function"
    },
    {
      "inputs": [],
      "name": "name",
      "outputs": [
        {
          "internalType": "string",
          "name": "",
          "type": "string"
        }
      ],
      "stateMutability": "view",
      "type": "function"
    },
    {
      "inputs": [],
      "name": "owner",
      "outputs": [
        {
          "internalType": "address",
          "name": "",
          "type": "address"
        }
      ],
      "stateMutability": "view",
      "type": "function"
    },
    {
      "inputs": [
        {
          "internalType": "uint256",
          "name": "tokenId",
          "type": "uint256"
        }
      ],
      "name": "ownerOf",
      "outputs": [
        {
          "internalType": "address",
          "name": "",
          "type": "address"
        }
      ],
      "stateMutability": "view",
      "type": "function"
    },
    {
      "inputs": [],
      "name": "pause",
      "outputs": [],
      "stateMutability": "nonpayable",
      "type": "function"
    },
    {
      "inputs": [],
      "name": "paused",
      "outputs": [
        {
          "internalType": "bool",
          "name": "",
          "type": "bool"
        }
      ],
      "stateMutability": "view",
      "type": "function"
    },
    {
      "inputs": [],
      "name": "renounceOwnership",
      "outputs": [],
      "stateMutability": "nonpayable",
      "type": "function"
    },
    {
      "inputs": [
        {
          "internalType": "address",
          "name": "from",
          "type": "address"
        },
        {
          "internalType": "address",
          "name": "to",
          "type": "address"
        },
        {
          "internalType": "uint256",
          "name": "tokenId",
          "type": "uint256"
        }
      ],
      "name": "safeTransferFrom",
      "outputs": [],
      "stateMutability": "nonpayable",
      "type": "function"
    },
    {
      "inputs": [
        {
          "internalType": "address",
          "name": "from",
          "type": "address"
        },
        {
          "internalType": "address",
          "name": "to",
          "type": "address"
        },
        {
          "internalType": "uint256",
          "name": "tokenId",
          "type": "uint256"
        },
        {
          "internalType": "bytes",
          "name": "data",
          "type": "bytes"
        }
      ],
      "name": "safeTransferFrom",
      "outputs": [],
      "stateMutability": "nonpayable",
      "type": "function"
    },
    {
      "inputs": [
        {
          "internalType": "address",
          "name": "operator",
          "type": "address"
        },
        {
          "internalType": "bool",
          "name": "approved",
          "type": "bool"
        }
      ],
      "name": "setApprovalForAll",
      "outputs": [],
      "stateMutability": "nonpayable",
      "type": "function"
    },
    {
      "inputs": [
        {
          "internalType": "uint256",
          "name": "tokenId",
          "type": "uint256"
        },
        {
          "internalType": "string",
          "name": "tokenURI",
          "type": "string"
        }
      ],
      "name": "setTokenURI",
      "outputs": [],
      "stateMutability": "nonpayable",
      "type": "function"
    },
    {
      "inputs": [
        {
          "internalType": "address",
          "name": "wallet",
          "type": "address"
        }
      ],
      "name": "setWallet",
      "outputs": [],
      "stateMutability": "nonpayable",
      "type": "function"
    },
    {
      "inputs": [
        {
          "internalType": "bytes4",
          "name": "interfaceId",
          "type": "bytes4"
        }
      ],
      "name": "supportsInterface",
      "outputs": [
        {
          "internalType": "bool",
          "name": "",
          "type": "bool"
        }
      ],
      "stateMutability": "view",
      "type": "function"
    },
    {
      "inputs": [],
      "name": "symbol",
      "outputs": [
        {
          "internalType": "string",
          "name": "",
          "type": "string"
        }
      ],
      "stateMutability": "view",
      "type": "function"
    },
    {
      "inputs": [
        {
          "internalType": "uint256",
          "name": "tokenId",
          "type": "uint256"
        }
      ],
      "name": "tokenURI",
      "outputs": [
        {
          "internalType": "string",
          "name": "",
          "type": "string"
        }
      ],
      "stateMutability": "view",
      "type": "function"
    },
    {
      "inputs": [
        {
          "internalType": "address",
          "name": "from",
          "type": "address"
        },
        {
          "internalType": "address",
          "name": "to",
          "type": "address"
        },
        {
          "internalType": "uint256",
          "name": "tokenId",
          "type": "uint256"
        }
      ],
      "name": "transferFrom",
      "outputs": [],
      "stateMutability": "nonpayable",
      "type": "function"
    },
    {
      "inputs": [
        {
          "internalType": "address",
          "name": "newOwner",
          "type": "address"
        }
      ],
      "name": "transferOwnership",
      "outputs": [],
      "stateMutability": "nonpayable",
      "type": "function"
    },
    {
      "inputs": [],
      "name": "unpause",
      "outputs": [],
      "stateMutability": "nonpayable",
      "type": "function"
    },
    {
      "inputs": [],
      "name": "withdraw",
      "outputs": [],
      "stateMutability": "nonpayable",
      "type": "function"
    }
  ],
  "bytecode": {
    "object": "0x60806040523480156200001157600080fd5b506040516200269a3803806200269a8339810160408190526200003491620001ab565b8383620000413362000096565b60016200004f8382620002d3565b5060026200005e8282620002d3565b50506008805460ff1916905550600a620000798582620002d3565b50600b620000888382620002d3565b50600c55506200039f915050565b600080546001600160a01b038381166001600160a01b0319831681178455604051919092169283917f8be0079c531659141344cd1fd0a4f28419497f9722a3daafe3b4186f6b6457e09190a35050565b634e487b7160e01b600052604160045260246000fd5b600082601f8301126200010e57600080fd5b81516001600160401b03808211156200012b576200012b620000e6565b604051601f8301601f19908116603f01168101908282118183101715620001565762000156620000e6565b816040528381526020925086838588010111156200017357600080fd5b600091505b8382101562000197578582018301518183018401529082019062000178565b600093810190920192909252949350505050565b60008060008060808587031215620001c257600080fd5b84516001600160401b0380821115620001da57600080fd5b620001e888838901620000fc565b95506020870151915080821115620001ff57600080fd5b6200020d88838901620000fc565b945060408701519150808211156200022457600080fd5b506200023387828801620000fc565b606096909601519497939650505050565b600181811c908216806200025957607f821691505b6020821081036200027a57634e487b7160e01b600052602260045260246000fd5b50919050565b601f821115620002ce57600081815260208120601f850160051c81016020861015620002a95750805b601f850160051c820191505b81811015620002ca57828155600101620002b5565b5050505b505050565b81516001600160401b03811115620002ef57620002ef620000e6565b620003078162000300845462000244565b8462000280565b602080601f8311600181146200033f5760008415620003265750858301515b600019600386901b1c1916600185901b178555620002ca565b600085815260208120601f198616915b8281101562000370578886015182559484019460019091019084016200034f565b50858210156200038f5787850151600019600388901b60f8161c191681555b5050505050600190811b01905550565b6122eb80620003af6000396000f3fe6080604052600436106101405760003560e01c806370a08231116100b6578063b88d4fde1161006f578063b88d4fde14610363578063c87b56dd14610383578063deaa59df146103a3578063e985e9c5146103c3578063f2fde38b146103e3578063fc6180711461040357600080fd5b806370a08231146102b8578063715018a6146102e65780638456cb59146102fb5780638da5cb5b1461031057806395d89b411461032e578063a22cb4651461034357600080fd5b806323b872dd1161010857806323b872dd146102165780633ccfd60b146102365780633f4ba83a1461024b57806342842e0e146102605780635c975abb146102805780636352211e1461029857600080fd5b806301ffc9a71461014557806306fdde031461017a578063081812fc1461019c578063095ea7b3146101d4578063162094c4146101f6575b600080fd5b34801561015157600080fd5b50610165610160366004611bd4565b610416565b60405190151581526020015b60405180910390f35b34801561018657600080fd5b5061018f610441565b6040516101719190611c41565b3480156101a857600080fd5b506101bc6101b7366004611c54565b6104d3565b6040516001600160a01b039091168152602001610171565b3480156101e057600080fd5b506101f46101ef366004611c89565b6104fa565b005b34801561020257600080fd5b506101f4610211366004611d3f565b610614565b34801561022257600080fd5b506101f4610231366004611d9a565b61062a565b34801561024257600080fd5b506101f461065b565b34801561025757600080fd5b506101f46106f5565b34801561026c57600080fd5b506101f461027b366004611d9a565b610707565b34801561028c57600080fd5b5060085460ff16610165565b3480156102a457600080fd5b506101bc6102b3366004611c54565b610722565b3480156102c457600080fd5b506102d86102d3366004611dd6565b610782565b604051908152602001610171565b3480156102f257600080fd5b506101f4610808565b34801561030757600080fd5b506101f461081a565b34801561031c57600080fd5b506000546001600160a01b03166101bc565b34801561033a57600080fd5b5061018f61082a565b34801561034f57600080fd5b506101f461035e366004611df1565b610839565b34801561036f57600080fd5b506101f461037e366004611e2d565b610844565b34801561038f57600080fd5b5061018f61039e366004611c54565b61087c565b3480156103af57600080fd5b506101f46103be366004611dd6565b61098c565b3480156103cf57600080fd5b506101656103de366004611ea9565b6109b6565b3480156103ef57600080fd5b506101f46103fe366004611dd6565b6109e4565b6101f4610411366004611edc565b610a5d565b60006001600160e01b03198216632483248360e11b148061043b575061043b82610e60565b92915050565b60606001805461045090611f32565b80601f016020809104026020016040519081016040528092919081815260200182805461047c90611f32565b80156104c95780601f1061049e576101008083540402835291602001916104c9565b820191906000526020600020905b8154815290600101906020018083116104ac57829003601f168201915b5050505050905090565b60006104de82610eb0565b506000908152600560205260409020546001600160a01b031690565b600061050582610722565b9050806001600160a01b0316836001600160a01b0316036105775760405162461bcd60e51b815260206004820152602160248201527f4552433732313a20617070726f76616c20746f2063757272656e74206f776e656044820152603960f91b60648201526084015b60405180910390fd5b336001600160a01b0382161480610593575061059381336109b6565b6106055760405162461bcd60e51b815260206004820152603d60248201527f4552433732313a20617070726f76652063616c6c6572206973206e6f7420746f60448201527f6b656e206f776e6572206f7220617070726f76656420666f7220616c6c000000606482015260840161056e565b61060f8383610f0f565b505050565b61061c610f7d565b6106268282610fd7565b5050565b61063433826110a2565b6106505760405162461bcd60e51b815260040161056e90611f6c565b61060f838383611100565b610663610f7d565b47806106bc5760405162461bcd60e51b815260206004820152602260248201527f53696d706c654e4654313a206e6f2062616c616e636520746f20776974686472604482015261617760f01b606482015260840161056e565b600080546040516001600160a01b039091169183156108fc02918491818181858888f19350505050158015610626573d6000803e3d6000fd5b6106fd610f7d565b610705611264565b565b61060f83838360405180602001604052806000815250610844565b6000818152600360205260408120546001600160a01b03168061043b5760405162461bcd60e51b8152602060048201526018602482015277115490cdcc8c4e881a5b9d985b1a59081d1bdad95b88125160421b604482015260640161056e565b60006001600160a01b0382166107ec5760405162461bcd60e51b815260206004820152602960248201527f4552433732313a2061646472657373207a65726f206973206e6f7420612076616044820152683634b21037bbb732b960b91b606482015260840161056e565b506001600160a01b031660009081526004602052604090205490565b610810610f7d565b61070560006112b6565b610822610f7d565b610705611306565b60606002805461045090611f32565b610626338383611343565b61084e33836110a2565b61086a5760405162461bcd60e51b815260040161056e90611f6c565b61087684848484611411565b50505050565b606061088782610eb0565b600082815260076020526040812080546108a090611f32565b80601f01602080910402602001604051908101604052809291908181526020018280546108cc90611f32565b80156109195780601f106108ee57610100808354040283529160200191610919565b820191906000526020600020905b8154815290600101906020018083116108fc57829003601f168201915b50505050509050600061093760408051602081019091526000815290565b90508051600003610949575092915050565b81511561097b578082604051602001610963929190611fb9565b60405160208183030381529060405292505050919050565b61098484611444565b949350505050565b610994610f7d565b600d80546001600160a01b0319166001600160a01b0392909216919091179055565b6001600160a01b03918216600090815260066020908152604080832093909416825291909152205460ff1690565b6109ec610f7d565b6001600160a01b038116610a515760405162461bcd60e51b815260206004820152602660248201527f4f776e61626c653a206e6577206f776e657220697320746865207a65726f206160448201526564647265737360d01b606482015260840161056e565b610a5a816112b6565b50565b34670de0b6b3a764000014610abe5760405162461bcd60e51b815260206004820152602160248201527f53696d706c654e4654313a20696e636f72726563742065746865722076616c756044820152606560f81b606482015260840161056e565b600d546001600160a01b0316610b165760405162461bcd60e51b815260206004820152601a60248201527f53696d706c654e4654313a2077616c6c6574206e6f7420736574000000000000604482015260640161056e565b6001600160a01b0385166000908152600e602052604090205460ff1615610b965760405162461bcd60e51b815260206004820152602e60248201527f53696d706c654e4654313a20616464726573732068617320616c72656164792060448201526d36b4b73a32b21030903a37b5b2b760911b606482015260840161056e565b6001600160a01b0385166000908152600f60205260409020548414610bfd5760405162461bcd60e51b815260206004820152601960248201527f53696d706c654e4654313a20696e76616c6964206e6f6e636500000000000000604482015260640161056e565b6001600160a01b0385166000908152600f60205260408120805491610c2183611ffe565b91905055506000610c3160095490565b610c3c906001612017565b905060007f8b73c3c69bb8fe3d512ecc4cf759cc79239f7b179b0ffacaa9a75d522b39400f600a604051610c70919061202a565b6040518091039020600b604051610c87919061202a565b60408051918290038220600c54602084019590955290820192909252606081019190915260808101919091523060a082015260c00160408051808303601f1901815282825280516020918201208383018352601e84527f4d696e74286164647265737320746f2c75696e74323536206e6f6e63652900009382019390935281517fc6598e95f0b2ccba1a4a73a6bc686291c631d0d27596ca90f2ad641f2af53a03918101919091526001600160a01b038a16918101919091526060810188905290915060009060800160405160208183030381529060405280519060200120905060008282604051602001610d9392919061190160f01b81526002810192909252602282015260420190565b6040516020818303038152906040528051906020012090506000610db9828989896114b8565b600d549091506001600160a01b03808316911614610e195760405162461bcd60e51b815260206004820152601d60248201527f53696d706c654e4654313a20696e76616c6964207369676e6174757265000000604482015260640161056e565b610e238a866114e0565b610e31600980546001019055565b5050506001600160a01b039096166000908152600e60205260409020805460ff19166001179055505050505050565b60006001600160e01b031982166380ac58cd60e01b1480610e9157506001600160e01b03198216635b5e139f60e01b145b8061043b57506301ffc9a760e01b6001600160e01b031983161461043b565b6000818152600360205260409020546001600160a01b0316610a5a5760405162461bcd60e51b8152602060048201526018602482015277115490cdcc8c4e881a5b9d985b1a59081d1bdad95b88125160421b604482015260640161056e565b600081815260056020526040902080546001600160a01b0319166001600160a01b0384169081179091558190610f4482610722565b6001600160a01b03167f8c5be1e5ebec7d5bd14f71427d1e84f3dd0314c0f7b2291e5b200ac8c7c3b92560405160405180910390a45050565b6000546001600160a01b031633146107055760405162461bcd60e51b815260206004820181905260248201527f4f776e61626c653a2063616c6c6572206973206e6f7420746865206f776e6572604482015260640161056e565b6000828152600360205260409020546001600160a01b03166110525760405162461bcd60e51b815260206004820152602e60248201527f45524337323155524953746f726167653a2055524920736574206f66206e6f6e60448201526d32bc34b9ba32b73a103a37b5b2b760911b606482015260840161056e565b600082815260076020526040902061106a82826120ee565b506040518281527ff8e1a15aba9398e019f0b49df1a4fde98ee17ae345cb5f6b5e2c27f5033e8ce79060200160405180910390a15050565b6000806110ae83610722565b9050806001600160a01b0316846001600160a01b031614806110d557506110d581856109b6565b806109845750836001600160a01b03166110ee846104d3565b6001600160a01b031614949350505050565b826001600160a01b031661111382610722565b6001600160a01b0316146111395760405162461bcd60e51b815260040161056e906121ae565b6001600160a01b03821661119b5760405162461bcd60e51b8152602060048201526024808201527f4552433732313a207472616e7366657220746f20746865207a65726f206164646044820152637265737360e01b606482015260840161056e565b826001600160a01b03166111ae82610722565b6001600160a01b0316146111d45760405162461bcd60e51b815260040161056e906121ae565b600081815260056020908152604080832080546001600160a01b03199081169091556001600160a01b0387811680865260048552838620805460001901905590871680865283862080546001019055868652600390945282852080549092168417909155905184937fddf252ad1be2c89b69c2b068fc378daa952ba7f163c4a11628f55a4df523b3ef91a4505050565b61126c6114fa565b6008805460ff191690557f5db9ee0a495bf2e6ff9c91a7834c1ba4fdd244a5e8aa4e537bd38aeae4b073aa335b6040516001600160a01b03909116815260200160405180910390a1565b600080546001600160a01b038381166001600160a01b0319831681178455604051919092169283917f8be0079c531659141344cd1fd0a4f28419497f9722a3daafe3b4186f6b6457e09190a35050565b61130e611543565b6008805460ff191660011790557f62e78cea01bee320cd4e420270b5ea74000d11b0c9f74754ebdbfc544b05a2586112993390565b816001600160a01b0316836001600160a01b0316036113a45760405162461bcd60e51b815260206004820152601960248201527f4552433732313a20617070726f766520746f2063616c6c657200000000000000604482015260640161056e565b6001600160a01b03838116600081815260066020908152604080832094871680845294825291829020805460ff191686151590811790915591519182527f17307eab39ab6107e8899845ad3d59bd9653f200f220920489ca2b5937696c31910160405180910390a3505050565b61141c848484611100565b61142884848484611589565b6108765760405162461bcd60e51b815260040161056e906121f3565b606061144f82610eb0565b600061146660408051602081019091526000815290565b9050600081511161148657604051806020016040528060008152506114b1565b8061149084611687565b6040516020016114a1929190611fb9565b6040516020818303038152906040525b9392505050565b60008060006114c98787878761171a565b915091506114d6816117de565b5095945050505050565b610626828260405180602001604052806000815250611928565b60085460ff166107055760405162461bcd60e51b815260206004820152601460248201527314185d5cd8589b194e881b9bdd081c185d5cd95960621b604482015260640161056e565b60085460ff16156107055760405162461bcd60e51b815260206004820152601060248201526f14185d5cd8589b194e881c185d5cd95960821b604482015260640161056e565b60006001600160a01b0384163b1561167f57604051630a85bd0160e11b81526001600160a01b0385169063150b7a02906115cd903390899088908890600401612245565b6020604051808303816000875af1925050508015611608575060408051601f3d908101601f1916820190925261160591810190612282565b60015b611665573d808015611636576040519150601f19603f3d011682016040523d82523d6000602084013e61163b565b606091505b50805160000361165d5760405162461bcd60e51b815260040161056e906121f3565b805181602001fd5b6001600160e01b031916630a85bd0160e11b149050610984565b506001610984565b606060006116948361195b565b600101905060008167ffffffffffffffff8111156116b4576116b4611cb3565b6040519080825280601f01601f1916602001820160405280156116de576020820181803683370190505b5090508181016020015b600019016f181899199a1a9b1b9c1cb0b131b232b360811b600a86061a8153600a85049450846116e857509392505050565b6000807f7fffffffffffffffffffffffffffffff5d576e7357a4501ddfe92f46681b20a083111561175157506000905060036117d5565b6040805160008082526020820180845289905260ff881692820192909252606081018690526080810185905260019060a0016020604051602081039080840390855afa1580156117a5573d6000803e3d6000fd5b5050604051601f1901519150506001600160a01b0381166117ce576000600192509250506117d5565b9150600090505b94509492505050565b60008160048111156117f2576117f261229f565b036117fa5750565b600181600481111561180e5761180e61229f565b0361185b5760405162461bcd60e51b815260206004820152601860248201527f45434453413a20696e76616c6964207369676e61747572650000000000000000604482015260640161056e565b600281600481111561186f5761186f61229f565b036118bc5760405162461bcd60e51b815260206004820152601f60248201527f45434453413a20696e76616c6964207369676e6174757265206c656e67746800604482015260640161056e565b60038160048111156118d0576118d061229f565b03610a5a5760405162461bcd60e51b815260206004820152602260248201527f45434453413a20696e76616c6964207369676e6174757265202773272076616c604482015261756560f01b606482015260840161056e565b6119328383611a33565b61193f6000848484611589565b61060f5760405162461bcd60e51b815260040161056e906121f3565b60008072184f03e93ff9f4daa797ed6e38ed64bf6a1f0160401b831061199a5772184f03e93ff9f4daa797ed6e38ed64bf6a1f0160401b830492506040015b6d04ee2d6d415b85acef810000000083106119c6576d04ee2d6d415b85acef8100000000830492506020015b662386f26fc1000083106119e457662386f26fc10000830492506010015b6305f5e10083106119fc576305f5e100830492506008015b6127108310611a1057612710830492506004015b60648310611a22576064830492506002015b600a831061043b5760010192915050565b6001600160a01b038216611a895760405162461bcd60e51b815260206004820181905260248201527f4552433732313a206d696e7420746f20746865207a65726f2061646472657373604482015260640161056e565b6000818152600360205260409020546001600160a01b031615611aee5760405162461bcd60e51b815260206004820152601c60248201527f4552433732313a20746f6b656e20616c7265616479206d696e74656400000000604482015260640161056e565b6000818152600360205260409020546001600160a01b031615611b535760405162461bcd60e51b815260206004820152601c60248201527f4552433732313a20746f6b656e20616c7265616479206d696e74656400000000604482015260640161056e565b6001600160a01b038216600081815260046020908152604080832080546001019055848352600390915280822080546001600160a01b0319168417905551839291907fddf252ad1be2c89b69c2b068fc378daa952ba7f163c4a11628f55a4df523b3ef908290a45050565b6001600160e01b031981168114610a5a57600080fd5b600060208284031215611be657600080fd5b81356114b181611bbe565b60005b83811015611c0c578181015183820152602001611bf4565b50506000910152565b60008151808452611c2d816020860160208601611bf1565b601f01601f19169290920160200192915050565b6020815260006114b16020830184611c15565b600060208284031215611c6657600080fd5b5035919050565b80356001600160a01b0381168114611c8457600080fd5b919050565b60008060408385031215611c9c57600080fd5b611ca583611c6d565b946020939093013593505050565b634e487b7160e01b600052604160045260246000fd5b600067ffffffffffffffff80841115611ce457611ce4611cb3565b604051601f8501601f19908116603f01168101908282118183101715611d0c57611d0c611cb3565b81604052809350858152868686011115611d2557600080fd5b858560208301376000602087830101525050509392505050565b60008060408385031215611d5257600080fd5b82359150602083013567ffffffffffffffff811115611d7057600080fd5b8301601f81018513611d8157600080fd5b611d9085823560208401611cc9565b9150509250929050565b600080600060608486031215611daf57600080fd5b611db884611c6d565b9250611dc660208501611c6d565b9150604084013590509250925092565b600060208284031215611de857600080fd5b6114b182611c6d565b60008060408385031215611e0457600080fd5b611e0d83611c6d565b915060208301358015158114611e2257600080fd5b809150509250929050565b60008060008060808587031215611e4357600080fd5b611e4c85611c6d565b9350611e5a60208601611c6d565b925060408501359150606085013567ffffffffffffffff811115611e7d57600080fd5b8501601f81018713611e8e57600080fd5b611e9d87823560208401611cc9565b91505092959194509250565b60008060408385031215611ebc57600080fd5b611ec583611c6d565b9150611ed360208401611c6d565b90509250929050565b600080600080600060a08688031215611ef457600080fd5b611efd86611c6d565b945060208601359350604086013560ff81168114611f1a57600080fd5b94979396509394606081013594506080013592915050565b600181811c90821680611f4657607f821691505b602082108103611f6657634e487b7160e01b600052602260045260246000fd5b50919050565b6020808252602d908201527f4552433732313a2063616c6c6572206973206e6f7420746f6b656e206f776e6560408201526c1c881bdc88185c1c1c9bdd9959609a1b606082015260800190565b60008351611fcb818460208801611bf1565b835190830190611fdf818360208801611bf1565b01949350505050565b634e487b7160e01b600052601160045260246000fd5b60006001820161201057612010611fe8565b5060010190565b8082018082111561043b5761043b611fe8565b600080835461203881611f32565b60018281168015612050576001811461206557612094565b60ff1984168752821515830287019450612094565b8760005260208060002060005b8581101561208b5781548a820152908401908201612072565b50505082870194505b50929695505050505050565b601f82111561060f57600081815260208120601f850160051c810160208610156120c75750805b601f850160051c820191505b818110156120e6578281556001016120d3565b505050505050565b815167ffffffffffffffff81111561210857612108611cb3565b61211c816121168454611f32565b846120a0565b602080601f83116001811461215157600084156121395750858301515b600019600386901b1c1916600185901b1785556120e6565b600085815260208120601f198616915b8281101561218057888601518255948401946001909101908401612161565b508582101561219e5787850151600019600388901b60f8161c191681555b5050505050600190811b01905550565b60208082526025908201527f4552433732313a207472616e736665722066726f6d20696e636f72726563742060408201526437bbb732b960d91b606082015260800190565b60208082526032908201527f4552433732313a207472616e7366657220746f206e6f6e20455243373231526560408201527131b2b4bb32b91034b6b83632b6b2b73a32b960711b606082015260800190565b6001600160a01b038581168252841660208201526040810183905260806060820181905260009061227890830184611c15565b9695505050505050565b60006020828403121561229457600080fd5b81516114b181611bbe565b634e487b7160e01b600052602160045260246000fdfea2646970667358221220874185f1375bcc75f7907d573f9423268d93a1660ce7737271fac1a4daad6ec764736f6c63430008140033",
    "linkReferences": {}
  },
  "methodIdentifiers": {
    "approve(address,uint256)": "095ea7b3",
    "balanceOf(address)": "70a08231",
    "getApproved(uint256)": "081812fc",
    "isApprovedForAll(address,address)": "e985e9c5",
    "mint(address,uint256,uint8,bytes32,bytes32)": "fc618071",
    "name()": "06fdde03",
    "owner()": "8da5cb5b",
    "ownerOf(uint256)": "6352211e",
    "pause()": "8456cb59",
    "paused()": "5c975abb",
    "renounceOwnership()": "715018a6",
    "safeTransferFrom(address,address,uint256)": "42842e0e",
    "safeTransferFrom(address,address,uint256,bytes)": "b88d4fde",
    "setApprovalForAll(address,bool)": "a22cb465",
    "setTokenURI(uint256,string)": "162094c4",
    "setWallet(address)": "deaa59df",
    "supportsInterface(bytes4)": "01ffc9a7",
    "symbol()": "95d89b41",
    "tokenURI(uint256)": "c87b56dd",
    "transferFrom(address,address,uint256)": "23b872dd",
    "transferOwnership(address)": "f2fde38b",
    "unpause()": "3f4ba83a",
    "withdraw()": "3ccfd60b"
  },
  "id": 35
}